{
  "contractName": "MyNewContract",
  "abi": [
    {
      "constant": false,
      "inputs": [
        {
          "name": "newName",
          "type": "string"
        }
      ],
      "name": "setName",
      "outputs": [],
      "payable": false,
      "stateMutability": "nonpayable",
      "type": "function"
    },
    {
      "constant": false,
      "inputs": [
        {
          "name": "newAge",
          "type": "uint256"
        }
      ],
      "name": "setAge",
      "outputs": [],
      "payable": false,
      "stateMutability": "nonpayable",
      "type": "function"
    },
    {
      "constant": true,
      "inputs": [],
      "name": "getName",
      "outputs": [
        {
          "name": "",
          "type": "string"
        }
      ],
      "payable": false,
      "stateMutability": "view",
      "type": "function"
    },
    {
      "constant": true,
      "inputs": [],
      "name": "getAge",
      "outputs": [
        {
          "name": "",
          "type": "uint256"
        }
      ],
      "payable": false,
      "stateMutability": "view",
      "type": "function"
    }
  ],
  "bytecode": "0x608060405234801561001057600080fd5b506103c0806100206000396000f3fe60806040526004361061005c576000357c01000000000000000000000000000000000000000000000000000000009004806317d7de7c14610061578063967e6e65146100f1578063c47f00271461011c578063d5dcf127146101e4575b600080fd5b34801561006d57600080fd5b5061007661021f565b6040518080602001828103825283818151815260200191508051906020019080838360005b838110156100b657808201518184015260208101905061009b565b50505050905090810190601f1680156100e35780820380516001836020036101000a031916815260200191505b509250505060405180910390f35b3480156100fd57600080fd5b506101066102c1565b6040518082815260200191505060405180910390f35b34801561012857600080fd5b506101e26004803603602081101561013f57600080fd5b810190808035906020019064010000000081111561015c57600080fd5b82018360208201111561016e57600080fd5b8035906020019184600183028401116401000000008311171561019057600080fd5b91908080601f016020809104026020016040519081016040528093929190818152602001838380828437600081840152601f19601f8201169050808301925050505050505091929192905050506102cb565b005b3480156101f057600080fd5b5061021d6004803603602081101561020757600080fd5b81019080803590602001909291905050506102e5565b005b606060008054600181600116156101000203166002900480601f0160208091040260200160405190810160405280929190818152602001828054600181600116156101000203166002900480156102b75780601f1061028c576101008083540402835291602001916102b7565b820191906000526020600020905b81548152906001019060200180831161029a57829003601f168201915b5050505050905090565b6000600154905090565b80600090805190602001906102e19291906102ef565b5050565b8060018190555050565b828054600181600116156101000203166002900490600052602060002090601f016020900481019282601f1061033057805160ff191683800117855561035e565b8280016001018555821561035e579182015b8281111561035d578251825591602001919060010190610342565b5b50905061036b919061036f565b5090565b61039191905b8082111561038d576000816000905550600101610375565b5090565b9056fea165627a7a723058204e824dcc1c470ecaaaa882f4dddf49f61923321e0f1d551e482bcc9669c785230029",
  "source": "pragma solidity >=0.4.22 <0.6.0;\ncontract MyNewContract{\n    string private name;\n    uint256 private age;\n    function setName(string memory newName) public {\n        name = newName;\n    }\n    function setAge(uint256 newAge) public {\n        age = newAge;\n    }\n    function getName() public view returns(string memory){\n        return name;\n    }\n    function getAge() public view returns(uint256){\n        return age;\n    }\n}\n",
  "sourcePath": "/home/amber/Desktop/Amber_Gautam/Blockchain/truffle_example/contracts/firstcontract.sol",
  "compiler": {
    "name": "solc",
    "version": "0.5.1+commit.c8a2cb62.Linux.g++"
  },
  "schemaVersion": "3.0.3",
  "updatedAt": "2019-03-28T06:11:59.388Z",
  "devdoc": {
    "methods": {}
  },
  "userdoc": {
    "methods": {}
  }
}