{
  "contractName": "MySecondContract",
  "abi": [
    {
      "inputs": [],
      "payable": false,
      "stateMutability": "nonpayable",
      "type": "constructor"
    },
    {
      "constant": false,
      "inputs": [
        {
          "name": "newMessage",
          "type": "string"
        }
      ],
      "name": "addMessage",
      "outputs": [],
      "payable": false,
      "stateMutability": "nonpayable",
      "type": "function"
    },
    {
      "constant": true,
      "inputs": [],
      "name": "countMessages",
      "outputs": [
        {
          "name": "",
          "type": "uint256"
        }
      ],
      "payable": false,
      "stateMutability": "view",
      "type": "function"
    },
    {
      "constant": true,
      "inputs": [
        {
          "name": "index",
          "type": "uint256"
        }
      ],
      "name": "getMessages",
      "outputs": [
        {
          "name": "",
          "type": "string"
        }
      ],
      "payable": false,
      "stateMutability": "view",
      "type": "function"
    }
  ],
  "bytecode": "0x608060405234801561001057600080fd5b50336000806101000a81548173ffffffffffffffffffffffffffffffffffffffff021916908373ffffffffffffffffffffffffffffffffffffffff160217905550610433806100606000396000f3fe608060405260043610610051576000357c0100000000000000000000000000000000000000000000000000000000900480636a226a49146100565780637f75a60a1461011e578063ae36853d14610149575b600080fd5b34801561006257600080fd5b5061011c6004803603602081101561007957600080fd5b810190808035906020019064010000000081111561009657600080fd5b8201836020820111156100a857600080fd5b803590602001918460018302840111640100000000831117156100ca57600080fd5b91908080601f016020809104026020016040519081016040528093929190818152602001838380828437600081840152601f19601f8201169050808301925050505050505091929192905050506101fd565b005b34801561012a57600080fd5b5061013361029a565b6040518082815260200191505060405180910390f35b34801561015557600080fd5b506101826004803603602081101561016c57600080fd5b81019080803590602001909291905050506102a7565b6040518080602001828103825283818151815260200191508051906020019080838360005b838110156101c25780820151818401526020810190506101a7565b50505050905090810190601f1680156101ef5780820380516001836020036101000a031916815260200191505b509250505060405180910390f35b6000809054906101000a900473ffffffffffffffffffffffffffffffffffffffff1673ffffffffffffffffffffffffffffffffffffffff163373ffffffffffffffffffffffffffffffffffffffff1614151561025857600080fd5b6001819080600181540180825580915050906001820390600052602060002001600090919290919091509080519060200190610295929190610362565b505050565b6000600180549050905090565b60606001828154811015156102b857fe5b906000526020600020018054600181600116156101000203166002900480601f0160208091040260200160405190810160405280929190818152602001828054600181600116156101000203166002900480156103565780601f1061032b57610100808354040283529160200191610356565b820191906000526020600020905b81548152906001019060200180831161033957829003601f168201915b50505050509050919050565b828054600181600116156101000203166002900490600052602060002090601f016020900481019282601f106103a357805160ff19168380011785556103d1565b828001600101855582156103d1579182015b828111156103d05782518255916020019190600101906103b5565b5b5090506103de91906103e2565b5090565b61040491905b808211156104005760008160009055506001016103e8565b5090565b9056fea165627a7a72305820f5c9b9a402aac2ff6b86c3b7b2e317442c8670398e1719587b0b964de7ff66d00029",
  "source": "pragma solidity >=0.4.22 <0.6.0;\ncontract MySecondContract{\n    address owner;\n    string[] messages;\n    constructor() public{\n        owner = msg.sender;\n    }\n    function addMessage(string memory newMessage) public{\n        require(msg.sender == owner);\n        messages.push(newMessage);\n    }\n    function countMessages() view public returns(uint256){\n        return messages.length;\n    }\n    function getMessages(uint256 index) view public returns(string memory){\n        return messages[index];\n    }\n}\n",
  "sourcePath": "/home/amber/Desktop/Amber_Gautam/Blockchain/truffle_example/contracts/secondcontract.sol",
  "compiler": {
    "name": "solc",
    "version": "0.5.1+commit.c8a2cb62.Linux.g++"
  },
  "schemaVersion": "3.0.3",
  "updatedAt": "2019-03-28T06:11:59.388Z",
  "devdoc": {
    "methods": {}
  },
  "userdoc": {
    "methods": {}
  }
}